:020000040800F2
:1000000000A000203D0D0008390B00083F0B000840
:10001000450B00084B0B0008510B000800000000C6
:10002000000000000000000000000000570B000866
:10003000650B000800000000730B0008810B00082E
:100040008D0D00088D0D00088D0D00088D0D000828
:100050008D0D00088D0D00088D0D00088D0D000818
:100060008D0D00088D0D00088D0D00088D0D000808
:100070008D0D00088D0D00088D0D00088D0D0008F8
:100080008D0D00088D0D00088D0D00088D0D0008E8
:100090008D0D00088D0D00088D0D00088D0D0008D8
:1000A0008D0D00088D0D00088D0D00088D0D0008C8
:1000B0008D0D00088D0D00088D0D00088D0D0008B8
:1000C0008D0D00088D0D00088D0D00088D0D0008A8
:1000D0008D0D00088D0D00088D0D00088D0D000898
:1000E0008D0D00088D0D00088D0D00088D0D000888
:1000F0008D0D00088D0D00088D0D00088D0D000878
:100100000000000000000000000000008D0D00084D
:100110008D0D00088D0D00088D0D00088D0D000857
:100120008D0D00088D0D00088D0D00088D0D000847
:100130008D0D00088D0D000800000000000000007B
:100140008D0D00088D0D00088D0D000800000000C9
:10015000000000000000000000000000000000009F
:1001600000000000000000008D0D00088D0D00084B
:100170008D0D0008000000000000000000000000DD
:08018000000000008D0D0008D5
:1001900010B5054C237833B9044B13B10448AFF3C1
:1001A00000800123237010BDF0000020000000003B
:1001B000303B000808B5034B1BB103490348AFF3BC
:1001C000008008BD00000000F4000020303B000863
:1001D000034613F8012B002AFBD1181A0138704787
:1001E00001F0FF01102A2BDB10F0070F08D010F8E8
:1001F000013B013A8B422DD010F0070F42B3F6D1EC
:10020000F0B441EA012141EA014122F007047FF004
:1002100000070023F0E80256083C85EA010586EA5B
:10022000010685FA47F5A3FA87F586FA47F6A5FA97
:1002300087F68EB9EED1F0BC01F0FF0102F00702A3
:1002400032B110F8013B013A83EA010313B1F8D14E
:100250000020704701387047002D06BF354603382F
:10026000073815F0010F07D1013015F4807F02BF68
:10027000013015F4C03F0130F0BC0138704700BFB9
:1002800080B483B000AF78607B681B6843F00102E4
:100290007B681A6000BF0C37BD465DF8047B704771
:1002A00080B483B000AF78607B681B6823F00102E4
:1002B0007B681A6000BF0C37BD465DF8047B704751
:1002C00080B483B000AF786039607B683A685A6266
:1002D00000BF0C37BD465DF8047B704780B483B027
:1002E00000AF78607B685B6A18460C37BD465DF8E6
:1002F000047B704780B582B000AF00F007F87860EB
:100300007B6818460837BD4680BD0000B0B5ADF526
:10031000866D00AF0023C7F82C3407F120014FF49D
:1003200080624FF00003084600F062F82A4A2B4929
:100330002B4800F0A7F84FF000024FF0000307F53C
:100340008461C1E9002333E0D7F8203419462548F9
:1003500000F098F800F075F807F12001384607F52D
:100360008463D3E9002301F066F9C7F82C0400F098
:1003700079F8D7F82C34002B09D11B4B19681A4B8C
:100380001B681B091A46194800F07CF804E06FF05E
:100390000303C7F82C3417E007F58463D3E900237F
:1003A00012F5807443F1000507F58463C3E9004545
:1003B00007F58463D3E900234FF480604FF0000118
:1003C000994208BF9042BFD2D7F82C34184607F59F
:1003D0008667BD46B0BD00BF00000020483B000856
:1003E0004C3B00087C3B00080C0100208C3B0008C3
:1003F000B0B487B000AFF860C7E900234FF0000247
:100400004FF00003C7E904230DE03A7C3B69F9682B
:100410000B443032D2B21A70D7E90423541C43F192
:100420000005C7E90445D7E90401D7E9002399424B
:1004300008BF9042E9D300BF00BF1C37BD46B0BC27
:10044000704780B500AF4FF08040FFF729FF0021D3
:100450004FF08040FFF734FF4FF08040FFF710FF70
:1004600000BF80BD80B500AF4FF08040FFF736FF82
:100470000346034A1360024B1B68184680BD00BF49
:100480000C0100200FB480B582B000AF07F1140357
:100490007B607A6839690A4802F000FD0848FFF776
:1004A00097FE03469AB264230549064801F0B8FC5A
:1004B00000BF0837BD46BDE8804004B0704700BFAC
:1004C000100100203003002080B400AF054B1B68F2
:1004D000044A43F00103136000BFBD465DF8047B8E
:1004E000704700BF0010024080B400AF064B1B688D
:1004F00003F00203022B0CBF01230023DBB21846DA
:10050000BD465DF8047B70470010024080B483B0A4
:1005100000AF7860074B1B6823F0F8027B68DB00B4
:10052000044913430B6000BF0C37BD465DF8047BE4
:10053000704700BF0010024080B483B000AF786005
:10054000064B5B6823F0030204497B6813434B604E
:1005500000BF0C37BD465DF8047B704700100240B9
:1005600080B400AF044B5B6803F00C031846BD4633
:100570005DF8047B704700BF0010024080B483B078
:1005800000AF7860064B5B6823F0F00204497B689B
:1005900013434B6000BF0C37BD465DF8047B7047CA
:1005A0000010024080B483B000AF7860064B5B68F7
:1005B00023F4E06204497B6813434B6000BF0C37AF
:1005C000BD465DF8047B70470010024080B483B0E4
:1005D00000AF7860064B5B6823F4605204497B6887
:1005E00013434B6000BF0C37BD465DF8047B70477A
:1005F0000010024080B483B000AF78600A4B1A6BE1
:100600007B681B0E032101FA03F3DB431A407B686E
:1006100023F07F43044913430B6300BF0C37BD46EF
:100620005DF8047B704700BF0010024080B400AF4B
:10063000054B1B68044A43F08073136000BFBD463E
:100640005DF8047B704700BF0010024080B400AF2B
:10065000074B1B6803F00073B3F1007F0CBF01234D
:100660000023DBB21846BD465DF8047B704700BF2F
:100670000010024080B483B000AF786039600E4B48
:100680005B6823F474127B6803F480313B680B438E
:10069000094913434B60084BDB6A23F00F027B6868
:1006A00003F00F0304491343CB6200BF0C37BD4670
:1006B0005DF8047B704700BF0010024080B485B035
:1006C00000AF7860084B5A6907497B6813434B6158
:1006D000054B5A697B681340FB60FB6800BF143709
:1006E000BD465DF8047B70470010024080B485B0C1
:1006F00000AF7860084BDA6907497B681343CB6128
:10070000054BDA697B681340FB60FB6800BF143758
:10071000BD465DF8047B70470010024080B483B092
:1007200000AF7860064B1B6823F0070204497B6822
:1007300013430B6000BF0C37BD465DF8047B704768
:100740000020024080B400AF044B1B6803F0070395
:100750001846BD465DF8047B704700BF002002408C
:1007600080B483B000AF78607B681B6843F00102FF
:100770007B681A6000BF0C37BD465DF8047B70478C
:1007800080B483B000AF78607B681B6823F00102FF
:100790007B681A6000BF0C37BD465DF8047B70476C
:1007A00080B483B000AF78607B681B6823F0800260
:1007B0007B681A6000BF0C37BD465DF8047B70474C
:1007C00080B483B000AF786039607B683A685A6261
:1007D00000BF0C37BD465DF8047B704780B483B022
:1007E00000AF78607B685B6A18460C37BD465DF8E1
:1007F000047B704780B483B000AF786039607B6859
:100800009B6823F4A03323F007033A681A437B68FC
:100810009A6000BF0C37BD465DF8047B704780B41A
:1008200083B000AF786039607B685B6823F070024A
:100830003B681A437B685A6000BF0C37BD465DF8C1
:10084000047B704780B483B000AF78607B689B689E
:1008500023F080027B689A6000BF0C37BD465DF8CC
:10086000047B704790B583B000AF00F00BFF00F041
:100870003FF800F0E7F800F083F800F0B3F800214B
:100880004FF08040FFF79CFF4FF08040FFF768FF7C
:10089000FFF730FD78607B68002B02D0104801F034
:1008A00053FF4FF08040FFF76BFF0E4B1C684FF07B
:1008B0008040FFF793FF03460B4A42F82430094B70
:1008C0001B680133074A1360064B1B68032B02D9D0
:1008D000044B00221A60054801F036FFCFE700BF45
:1008E00000E1F505100300202003002040420F0026
:1008F00080B500AF0020FFF711FF00BFFFF722FF18
:100900000346002BFAD1FFF7DFFD00BFFFF7ECFD38
:100910000346012BFAD11020FFF7F8FD4FF4002118
:100920000020FFF7A7FEFFF781FE00BFFFF78EFE56
:100930000346012BFAD10020FFF720FE4FF4806020
:10094000FFF730FE0020FFF741FE0220FFF7F4FD25
:1009500000BFFFF705FE0346082BFAD1074801F058
:1009600019FF002000F0A4FE0346002B01D000F088
:1009700075F80020FFF73EFE00BF80BD0024F400A4
:1009800080B586B000AF3B1D00221A605A609A60A5
:10099000DA601A610120FFF7A9FE0023BB80002363
:1009A000BB604FF0FF33FB6000233B613B1D1946EA
:1009B0004FF0804001F03EFE4FF08040FFF7F0FE28
:1009C00000214FF08040FFF715FF00214FF08040DD
:1009D000FFF725FF4FF08040FFF734FF00BF1837C7
:1009E000BD4680BD80B500AF144B154A1A60134B4D
:1009F0004FF4E1325A60114B00229A600F4B0022F3
:100A0000DA600E4B00221A610C4B0C225A610B4B20
:100A100000229A61094B0022DA61084B00221A6217
:100A2000064B00225A62054801F0ACF90346002B40
:100A300001D000F013F800BF80BD00BF30030020DC
:100A40000038014080B500AF4FF40020FFF736FEBC
:100A50004FF40030FFF732FE00BF80BD80B400AF1E
:100A600072B600BFFEE7000080B483B000AF0F4B4A
:100A70009B690E4A43F0010393610C4B9B6903F0A1
:100A800001037B607B68094BDB69084A43F08053B4
:100A9000D361064BDB6903F080533B603B6800BFCA
:100AA0000C37BD465DF8047B704700BF0010024064
:100AB00080B58AB000AF786007F1140300221A6095
:100AC0005A609A60DA601A617B681B68174A934221
:100AD00027D1174B9B69164A43F480439361144B0B
:100AE0009B6903F480433B613B69114B5B69104A8E
:100AF00043F4002353610E4B5B6903F40023FB6056
:100B0000FB6830237B610223BB610023FB6103236D
:100B10003B6207237B6207F114031946054800F086
:100B2000FDFE00BF2837BD4680BD00BF0038014034
:100B3000001002400008004880B400AFFEE780B417
:100B400000AFFEE780B400AFFEE780B400AFFEE781
:100B500080B400AFFEE780B400AF00BFBD465DF8D3
:100B6000047B704780B400AF00BFBD465DF8047BD6
:100B7000704780B400AF00BFBD465DF8047B70478E
:100B800080B500AF00F0C4FD00BF80BD80B400AFF1
:100B900001231846BD465DF8047B704780B582B0DE
:100BA00000AF7860396001F023FE034616221A6018
:100BB0004FF0FF3318460837BD4680BD80B582B080
:100BC00000AF78604FF0FF317868FFF7E7FFFEE78E
:100BD00080B586B000AFF860B9607A6000237B61B1
:100BE0000AE0AFF300800146BB685A1CBA60CAB283
:100BF0001A707B6901337B617A697B689A42F0DB0A
:100C00007B6818461837BD4680BD80B586B000AFFA
:100C1000F860B9607A6000237B6109E0BB685A1C08
:100C2000BA601B781846AFF300807B6901337B61A3
:100C30007A697B689A42F1DB7B6818461837BD46B3
:100C400080BD80B483B000AF78604FF0FF331846AA
:100C50000C37BD465DF8047B704780B483B000AFAD
:100C6000786039603B684FF400525A6000231846A0
:100C70000C37BD465DF8047B704780B483B000AF8D
:100C80007860012318460C37BD465DF8047B704739
:100C900080B485B000AFF860B9607A600023184670
:100CA0001437BD465DF8047B7047000080B586B000
:100CB00000AF7860144A154BD31A7B617B693B61A6
:100CC000134B1B68002B02D1114B124A1A60104BB8
:100CD0001A687B6813443A699A4207D201F088FD8A
:100CE00003460C221A604FF0FF3309E0084B1B68E3
:100CF000FB60074B1A687B681344054A1360FB6866
:100D000018461837BD4680BD00A000200004000032
:100D100014030020C803002080B400AF064BD3F8B2
:100D20008830054A43F47003C2F8883000BFBD46DE
:100D30005DF8047B704700BF00ED00E0DFF834D0C1
:100D40000D480E490E4A002302E0D458C450043323
:100D5000C4188C42F9D30B4A0B4C002301E01360FA
:100D60000432A242FBD3FFF7D7FF01F059FDFFF792
:100D700079FDFEE700A0002000000020F000002028
:100D8000A83E0008F0000020C8030020FEE780B461
:100D900000AF00BFBD465DF8047B704780B582B0F0
:100DA00000AF786030220021786801F06BFD00BF51
:100DB0000837BD4680BD000080B584B000AFF86044
:100DC0000B467A60FB727B682F2B05D90A4B0B4AC6
:100DD00027210B4801F0EEFCFA687B681344197870
:100DE000FA687B681344FA7A4A40D2B21A7000BF9C
:100DF0001037BD4680BD00BFA43B0008643D00081D
:100E0000C83B000880B586B000AFF860B9607A6072
:100E10003B607B682F2B05D9184B194A31211948A3
:100E200001F0C8FC7A683B681344302B05D9164B97
:100E3000134A3221134801F0BDFC00237B6114E00A
:100E40007A687B691344FA6813441978BA687B6935
:100E500013441A7878687B690344F86803444A406D
:100E6000D2B21A707B6901337B617A693B689A421E
:100E7000E6D300BF00BF1837BD4680BDA43B0008C5
:100E8000743D0008C83B00081C3C000880B584B0D5
:100E900000AFF860B9607A603B607B682F2B05D9A2
:100EA0000E4B0F4A4C210F4801F084FC7A683B68D6
:100EB0001344302B05D90C4B094A4D21094801F048
:100EC00079FCFA687B6813443A681946B86801F0FF
:100ED000CBFC00BF1037BD4680BD00BFA43B00085F
:100EE000843D0008C83B00081C3C000880B485B065
:100EF00000AF786039600023FB6027E0FB689B004F
:100F00007A68134400221A600023BB6018E0FB6873
:100F10009B007A6813441968FB689A00BB68134405
:100F20003A6813441B781A46BB68DB009A40FB689A
:100F30009B00786803440A431A60BB680133BB60B6
:100F4000BB68032BE3D9FB680133FB60FB680B2B09
:100F5000D4D900BF00BF1437BD465DF8047B70478D
:100F600080B485B000AF786039600023FB601CE07E
:100F70000023BB6013E0FB689B003A6813441A68C7
:100F8000BB68DB0022FA03F1FB689A00BB681344DC
:100F90007A681344CAB21A70BB680133BB60BB687D
:100FA000032BE8D9FB680133FB60FB680B2BDFD90F
:100FB00000BF00BF1437BD465DF8047B70470000DA
:100FC00090B599B000AF786039600023FB6522E0EE
:100FD000FB6D03F003039B007A6813441A68FB6DF2
:100FE00003F0030304339B0079680B441B685A40E9
:100FF000FB6D03F0030308339B0079680B441B6807
:101000005A40FB6D9B0007F160010B4443F8482CEC
:10101000FB6D0133FB65FB6D032BD9D90023FB6509
:1010200022E0FB6D013B03F003039B0007F160022C
:10103000134453F8483C4FEAF362FB6D013B03F065
:1010400003039B0007F160010B4453F8483C4FEA4F
:10105000B3435A40FB6D9B0007F160010B4443F81A
:10106000582CFB6D0133FB65FB6D032BD9D9002395
:10107000FB652EE00023BB6525E0B96D984BA3FB13
:1010800001235B081A4652001A448B1A9900FA6D24
:1010900002F003020A44920079680A441168FA6D6A
:1010A000920007F16000024452F8582C9800FB6D42
:1010B00003F0030303449B00786803444A401A602A
:1010C000BB6D0133BB65BB6D022BD6D9FB6D013304
:1010D000FB65FB6D032BCDD90023FB6539E0FB6D70
:1010E00003F003039B007A681A44FB6D03F00303CB
:1010F00012689B0007F160010B4443F8382CFB6D2C
:10110000013B03F0030304339B007A681A44FB6D30
:1011100003F00303043312689B0007F160010B44E2
:1011200043F8382CFB6D03F0030308339B007A6807
:1011300013441A68FB6D03F0030308334FEA72523D
:101140009B0007F160010B4443F8382CFB6D013321
:10115000FB65FB6D032BC2D907F12803302219462A
:10116000786801F081FB7B681A683B685A407B68AD
:101170001A600023FB655BE00023BB6552E0B96D9C
:10118000574BA3FB01235A0813465B001344CA1AAA
:101190009200FB6D03F0030313449B007A68134431
:1011A0001C68BB6D591C4E4BA3FB01235A08134608
:1011B0005B001344CA1A9200FB6D03F0030313444F
:1011C0009B007A6813441B68D843BB6D991C444B41
:1011D000A3FB01235A0813465B001344CA1A92006A
:1011E000FB6D03F0030313449B007A6813441B68F0
:1011F0001840B96D3A4BA3FB01235A0813465B0014
:101200001344CA1A9200FB6D03F00303134484EAEB
:1012100000029B0007F160010B4443F8382CBB6DC2
:101220000133BB65BB6D022BA9D9FB6D0133FB6597
:10123000FB6D032BA0D907F12803302219467868EB
:1012400001F012FB0023FB653BE0FB6D03F00303A1
:101250009B007A681A44FB6D03F0030312689B003D
:1012600007F160010B4443F8382CFB6D03F00303D6
:1012700004339B007A6813441A68FB6D03F0030380
:1012800004334FEAF2729B0007F160010B4443F80C
:10129000382CFB6D023303F0030308339B007A689C
:1012A00013441A68FB6D03F0030308334FEA3262FC
:1012B0009B0007F160010B4443F8382CFB6D0133B0
:1012C000FB65FB6D032BC0D907F1280330221946BB
:1012D000786801F0C9FA00BF6437BD4690BD00BF11
:1012E000ABAAAAAA80B590B000AF7860396007F1C8
:1012F0000C0379681846FFF7F9FD3B68C3F10C034E
:10130000FB630CE00C4AFB6B52F8232007F10C0343
:1013100011461846FFF754FEFB6B0133FB63FB6B72
:101320000B2BEFD907F10C0319467868FFF718FE6D
:1013300000BF4037BD4680BD343D000880B582B057
:1013400000AF78600C217868FFF7CCFF00BF08374A
:10135000BD4680BD80B584B000AFF860B9607A60EA
:10136000FB70F8687B680022B968FFF74BFDFB68EB
:101370007A6801211846FFF71FFDF868FB685B6B70
:10138000012B04D1FB7803F00103DBB200E0FB7812
:101390002F221946FFF710FDFB6801221A6300BFD8
:1013A0001037BD4680BD80B584B000AFF860B9602D
:1013B0007A60FB70FB685B6B012B05D0FB68F978EA
:1013C0002F221846FFF7F8FCFB681846FFF7B6FF18
:1013D000FB6802221A63F8687B680022B968FFF78D
:1013E00055FD00BF1037BD4680BD80B586B000AF4B
:1013F000F860B9607A603B60FB681B6B022B05D01C
:10140000002300220021F868FFF7CDFF3A687B68CF
:10141000934228BF13467B6197F820307A69B968F8
:10142000F868FFF797FF002387F82030BA687B69D8
:101430001344BB607A687B69D31A7B607B68002B9E
:10144000DAD100BF00BF1837BD4680BD80B592B06D
:1014500002AFF860B9607A603B60FB685B6B012BA0
:1014600005D0294B294A6A21294801F0A3F97A6855
:10147000BB6C13442B2B05D9264B244A6B212448E3
:1014800001F098F9FB6802225A63FB682C229A63E8
:10149000FB681822DA637B68002B31D007F1140354
:1014A0007A68B968184601F0DFF907F114027B6821
:1014B0001344BA6C3968184601F0D6F97A68BB6CE7
:1014C0001344BA6CD2B207F140010B4403F82C2C40
:1014D0007A68BB6C13445A1CFB689B6B07F11401C0
:1014E00002200090F868FFF780FF3B6D002B07D0CB
:1014F0000023009301233A6DF96CF868FFF775FF3C
:1015000000BF4037BD4680BD703C0008983D0008D4
:10151000943C0008E03C000880B586B000AFF8605D
:10152000B9607A60FB70FB68DB6B7A68934228BF16
:1015300013467B61FB787A69B968F868FFF733FF77
:10154000BA687B691344BB607A687B69D31A7B6095
:101550001AE0002300220021F868FFF7FBFEFB6879
:10156000DB6B7A68934228BF13467B6100237A695C
:10157000B968F868FFF717FFBA687B691344BB6066
:101580007A687B69D31A7B607B68002BE1D100BF4E
:1015900000BF1837BD4680BD80B588B004AFF86085
:1015A000B9607A603B60FFF7F2FBFB681846FFF713
:1015B000F5FBFB6802221A63FB6801225A63FB6891
:1015C00010229A63FB681022DA637B68002B0BD031
:1015D0003B6A0293FB690193BB6900933B687A689D
:1015E000B968F868FFF732FF00BF1037BD4680BD0D
:1015F00080B586B002AFF860B9607A60FB689B6B1B
:10160000032200927A68B968F868FFF7EEFE00BF1F
:101610001037BD4680BD80B584B000AFF860B960BA
:101620007A6040237A68B968F868FFF775FF00BFF1
:101630001037BD4680BD80B598B004AFF860B96082
:10164000C7E9002307F11000002302930023019350
:1016500000230093002300220021FFF79DFF3A683A
:1016600007F11003B9681846FFF7C2FF07F110032E
:101670002022F9681846FFF7CEFF0023184650379E
:10168000BD4680BD80B500AF084B1B68074A43F0DC
:1016900010031360032000F00DF9002000F008F89B
:1016A000FFF7E2F90023184680BD00BF002002408A
:1016B00080B582B000AF7860124B1A68124B1B786D
:1016C00019464FF47A73B3FBF1F3B2FBF3F3184608
:1016D00000F017F90346002B01D001230EE07B68D0
:1016E0000F2B0AD8002279684FF0FF3000F0EDF898
:1016F000064A7B681360002300E001231846083780
:10170000BD4680BD800000208800002084000020AD
:1017100080B400AF064B1B781A46064B1B68134477
:10172000044A136000BFBD465DF8047B704700BFEC
:1017300088000020B403002080B400AF034B1B6876
:101740001846BD465DF8047B704700BFB403002017
:1017500080B485B000AF78607B6803F00703FB605E
:101760000C4BDB68BB60BA684FF6FF031340BB60ED
:10177000FB681A02BB68134343F0BF6343F40033B2
:10178000BB60044ABB68D36000BF1437BD465DF838
:10179000047B704700ED00E080B400AF044BDB68D1
:1017A0001B0A03F007031846BD465DF8047B70472B
:1017B00000ED00E080B483B000AF03463960FB71F8
:1017C00097F90730002B0ADB3B68DAB20C4997F92E
:1017D00007301201D2B20B4483F800230AE03B68C1
:1017E000DAB20849FB7903F00F03043B1201D2B2CD
:1017F0000B441A7600BF0C37BD465DF8047B70477A
:1018000000E100E000ED00E080B489B000AFF860D6
:10181000B9607A60FB6803F00703FB61FB69C3F101
:101820000703042B28BF0423BB61FB690433062B89
:1018300002D9FB69033B00E000237B614FF0FF32DC
:10184000BB6902FA03F3DA43BB681A407B699A402A
:101850004FF0FF317B6901FA03F3D9437B680B40FA
:10186000134318462437BD465DF8047B70470000DB
:1018700080B582B000AF78607B68013BB3F1807FB8
:1018800001D301230FE00A4A7B68013B53600F211B
:101890004FF0FF30FFF78EFF054B00229A60044B9C
:1018A00007221A60002318460837BD4680BD00BFD6
:1018B00010E000E080B582B000AF78607868FFF794
:1018C00047FF00BF0837BD4680BD80B586B000AF7A
:1018D0000346B9607A60FB7300237B61FFF75CFF0E
:1018E00078617A68B9687869FFF78EFF024697F9E0
:1018F0000F3011461846FFF75DFF00BF1837BD4691
:1019000080BD80B582B000AF78607868FFF7B0FF27
:10191000034618460837BD4680BD000080B487B036
:1019200000AF7860396000237B6154E13B681A683E
:1019300001217B6901FA03F31340FB60FB68002B74
:1019400000F046813B685B68012B0BD03B685B680D
:10195000022B07D03B685B68112B03D03B685B68A8
:10196000122B30D17B689B683B617B695B00032253
:1019700002FA03F3DB433A6913403B613B68DA68E0
:101980007B695B0002FA03F33A6913433B617B68AE
:101990003A699A607B685B683B6101227B6902FA65
:1019A00003F3DB433A6913403B613B685B681B0907
:1019B00003F001027B6902FA03F33A6913433B61C6
:1019C0007B683A695A607B68DB683B617B695B00D6
:1019D000032202FA03F3DB433A6913403B613B689D
:1019E0009A687B695B0002FA03F33A6913433B612F
:1019F0007B683A69DA603B685B68022B03D03B681E
:101A00005B68122B23D17B69DA087B68083253F8B4
:101A100022303B617B6903F007039B000F2202FA2F
:101A200003F3DB433A6913403B613B681A697B6906
:101A300003F007039B0002FA03F33A6913433B6187
:101A40007B69DA087B680832396943F822107B68C1
:101A50001B683B617B695B00032202FA03F3DB43F3
:101A60003A6913403B613B685B6803F003027B69A2
:101A70005B0002FA03F33A6913433B617B683A69FE
:101A80001A603B685B6803F08053002B00F0A08075
:101A9000584B9B69574A43F001039361554B9B692F
:101AA00003F00103BB60BB68534A7B699B080233A8
:101AB00052F823303B617B6903F003039B000F2244
:101AC00002FA03F3DB433A6913403B617B68B3F1ED
:101AD000904F19D07B68494A934213D07B68484A9B
:101AE00093420DD07B68474A934207D07B68464AB1
:101AF000934201D1042308E0052306E0032304E018
:101B0000022302E0012300E000237A6902F00302CD
:101B1000920093403A6913433B6137497B699B08C4
:101B200002333A6941F82320384B1B683B61FB685C
:101B3000DB433A6913403B613B685B6803F48033E5
:101B4000002B03D03A69FB6813433B612F4A3B6982
:101B500013602E4B5B683B61FB68DB433A691340C3
:101B60003B613B685B6803F40033002B03D03A69A8
:101B7000FB6813433B61254A3B695360234B9B68D9
:101B80003B61FB68DB433A6913403B613B685B6840
:101B900003F48013002B03D03A69FB6813433B61C5
:101BA0001A4A3B699360194BDB683B61FB68DB4376
:101BB0003A6913403B613B685B6803F40013002BF8
:101BC00003D03A69FB6813433B61104A3B69D36019
:101BD0007B6901337B613B681A687B6922FA03F3F6
:101BE000002B7FF4A3AE00BF00BF1C37BD465DF8DD
:101BF000047B7047001002400000014000040048D0
:101C000000080048000C0048001000480004014093
:101C100080B48BB000AF0023FB610023BB610023C5
:101C20007B6200237B6100233B62294B5B68FB6185
:101C3000FB6903F00C03042B02D0082B03D03CE01B
:101C4000244B3B623CE0FB6903F470134FF47012C9
:101C5000BA60BA6892FAA2F27A607A68B2FA82F24C
:101C6000D2B2D3401C4AD35C7B61194BDB6A03F0D0
:101C70000F030F223A613A6992FAA2F2FA60FA6807
:101C8000B2FA82F2D2B2D340144AD35CBB61FB6990
:101C900003F48033002B08D00E4ABB69B2FBF3F289
:101CA0007B6902FB03F37B6204E07B690C4A02FB65
:101CB00003F37B627B6A3B6202E0064B3B6200BF40
:101CC0003B6A18462C37BD465DF8047B704700BF61
:101CD0000010024000127A00AC3D0008BC3D000834
:101CE00000093D0080B400AF034B1B681846BD4699
:101CF0005DF8047B704700BF8000002080B582B093
:101D000000AFFFF7EFFF01460B4B5B6803F4E063A6
:101D10004FF4E0627A607A6892FAA2F23A603A6826
:101D2000B2FA82F2D2B2D340044AD35C21FA03F36E
:101D300018460837BD4680BD001002402C3D000803
:101D400080B582B000AFFFF7CDFF01460B4B5B685B
:101D500003F460534FF460527A607A6892FAA2F208
:101D60003A603A68B2FA82F2D2B2D340044AD35C03
:101D700021FA03F318460837BD4680BD0010024023
:101D80002C3D000880B582B000AF78607B68002BE6
:101D900001D1012340E07B689B6F002B06D17B685B
:101DA000002283F874207868FEF782FE7B68242284
:101DB0009A677B681B681A687B681B6822F00102BF
:101DC0001A60786800F0C0F80346012B01D10123A6
:101DD00022E07B685B6A002B02D0786800F088FA0A
:101DE0007B681B685A687B681B6822F490425A60C3
:101DF0007B681B689A687B681B6822F02A029A60DD
:101E00007B681B681A687B681B6842F001021A60D5
:101E1000786800F00FFB034618460837BD4680BDC2
:101E200080B58AB002AFF860B9603B601346FB80B2
:101E3000FB689B6F202B40F08280BB68002B02D098
:101E4000FB88002B01D101237AE0FB6893F8743002
:101E5000012B01D1022373E0FB68012283F8742077
:101E6000FB680022C3F88020FB6821229A67FFF7F5
:101E700063FC7861FB68FA88A3F85020FB68FA8855
:101E8000A3F85220FB689B68B3F5805F08D1FB681C
:101E90001B69002B04D10023FB61BB68BB6103E01D
:101EA000BB68FB610023BB61FB68002283F87420E0
:101EB0002DE03B6800937B6900228021F86800F0E8
:101EC00002FB0346002B01D0032339E0FB69002B02
:101ED0000BD1BB691A88FB681B68C2F3080292B277
:101EE0001A85BB690233BB6108E0FB691A78FB689D
:101EF0001B6892B21A85FB690133FB61FB68B3F87A
:101F000052309BB2013B9AB2FB68A3F85220FB68A7
:101F1000B3F852309BB2002BCBD13B6800937B6966
:101F200000224021F86800F0CEFA0346002B01D0D1
:101F3000032305E0FB6820229A67002300E00223C8
:101F400018462037BD4680BD80B588B000AF7860A8
:101F50000023BB777B689A687B681B691A437B68A0
:101F60005B691A437B68DB6913437B617B681B6891
:101F70001B6823F4164323F00C037A68126879690E
:101F80000B4313607B681B685B6823F440517B68DC
:101F9000DA687B681B680A435A607B689B697B61CF
:101FA0007B681B6A7A6913437B617B681B689B684B
:101FB00023F430617B681B687A690A439A607B6806
:101FC0001B68AE4A934220D1AD4B1B6B03F0030359
:101FD000032B17D801A252F823F000BFED1F000811
:101FE000F91F0008FF1F0008F31F00080123FB77FB
:101FF000B5E00223FB77B2E00423FB77AFE00823D0
:10200000FB77ACE01023FB77A9E07B681B689D4A57
:10201000934224D19A4B1B6B03F44033B3F5403FFA
:1020200011D0B3F5403F17D8B3F5003F11D0B3F549
:10203000003F11D8002B03D0B3F5803F06D00BE052
:102040000023FB778BE00223FB7788E00423FB77F8
:1020500085E00823FB7782E01023FB777FE07B6835
:102060001B68894A934224D1854B1B6B03F44023A0
:10207000B3F5402F11D0B3F5402F17D8B3F5002F8B
:1020800011D0B3F5002F11D8002B03D0B3F5802F5A
:1020900006D00BE00023FB7761E00223FB775EE0D4
:1020A0000423FB775BE00823FB7758E01023FB77E2
:1020B00055E07B681B68754A934224D1704B1B6BBB
:1020C00003F44013B3F5401F11D0B3F5401F17D8E8
:1020D000B3F5001F11D0B3F5001F11D8002B03D0AA
:1020E000B3F5801F06D00BE00023FB7737E0022317
:1020F000FB7734E00423FB7731E00823FB772EE005
:102100001023FB772BE07B681B68614A934224D144
:102110005B4B1B6B03F44003B3F5400F11D0B3F5D9
:10212000400F17D8B3F5000F11D0B3F5000F11D839
:10213000002B03D0B3F5800F06D00BE00023FB7714
:102140000DE00223FB770AE00423FB7707E0082376
:10215000FB7704E01023FB7701E01023FB777B681B
:10216000DB69B3F5004F5CD1FB7F082B27D801A2B8
:1021700052F823F099210008A1210008A9210008A4
:10218000BF210008AF210008BF210008BF210008BF
:10219000BF210008B7210008FFF7B0FDB86113E0C8
:1021A000FFF7CEFDB8610FE03A4BBB610CE0FFF7E3
:1021B0002FFDB86108E04FF40043BB6104E0002349
:1021C000BB610123BB7700BFBB69002B00F085809A
:1021D000BB695A007B685B685B081A447B685B6874
:1021E000B2FBF3F39BB23B613B690F2B16D93B6902
:1021F000B3F5803F12D23B699BB223F00F03FB8102
:102200003B695B089BB203F007039AB2FB89134357
:10221000FB817B681B68FA89DA605EE00123BB778B
:102220005BE0FB7F082B37D801A252F823F000BFF8
:10223000552200085D220008652200089922000846
:102240006B220008992200089922000899220008B0
:1022500073220008FFF752FDB86122E0FFF770FD1E
:10226000B8611EE00B4BBB611BE0FFF7D1FCB8610E
:1022700017E04FF40043BB6113E000BF003801409A
:10228000001002400044004000480040004C004064
:102290000050004000127A000023BB610123BB778D
:1022A00000BFBB69002B18D07B685B685A08BB690C
:1022B0001A447B685B68B2FBF3F39BB23B613B69FA
:1022C0000F2B08D93B69B3F5803F04D27B681B68AC
:1022D0003A69DA6001E00123BB777B6800225A6625
:1022E0007B6800229A66BB7F18462037BD4680BDBA
:1022F00080B483B000AF78607B685B6A03F0010351
:10230000002B0AD07B681B685B6823F400317B6874
:102310009A6A7B681B680A435A607B685B6A03F0B1
:102320000203002B0AD07B681B685B6823F48031B2
:102330007B68DA6A7B681B680A435A607B685B6A61
:1023400003F00403002B0AD07B681B685B6823F44E
:1023500080217B681A6B7B681B680A435A607B6824
:102360005B6A03F00803002B0AD07B681B685B687C
:1023700023F400417B685A6B7B681B680A435A60F0
:102380007B685B6A03F01003002B0AD07B681B6834
:102390009B6823F480517B689A6B7B681B680A43B7
:1023A0009A607B685B6A03F02003002B0AD07B688D
:1023B0001B689B6823F400517B68DA6B7B681B68A1
:1023C0000A439A607B685B6A03F04003002B1AD0D3
:1023D0007B681B685B6823F480117B681A6C7B68E0
:1023E0001B680A435A607B681B6CB3F5801F0AD1D7
:1023F0007B681B685B6823F4C0017B685A6C7B6850
:102400001B680A435A607B685B6A03F08003002BF9
:102410000AD07B681B685B6823F400217B689A6C98
:102420007B681B680A435A6000BF0C37BD465DF8E5
:10243000047B704780B586B002AF78607B6800226D
:10244000C3F88020FFF778F9F8607B681B681B6889
:1024500003F00803082B0ED16FF07E430093FB6856
:1024600000224FF40011786800F02DF80346002B8D
:1024700001D0032323E07B681B681B6803F004037F
:10248000042B0ED16FF07E430093FB6800224FF4C3
:102490008001786800F017F80346002B01D0032371
:1024A0000DE07B6820229A677B682022DA677B68D0
:1024B00000221A667B68002283F8742000231846E5
:1024C0001037BD4680BD80B584B000AFF860B960FC
:1024D0003B601346FB715EE0BB69B3F1FF3F5AD02E
:1024E000FFF72AF902463B68D31ABA699A4202D327
:1024F000BB69002B1BD1FB681B681A68FB681B6853
:1025000022F4D0721A60FB681B689A68FB681B682B
:1025100022F001029A60FB6820229A67FB68202261
:10252000DA67FB68002283F87420032343E0FB682A
:102530001B681B6803F00403002B2CD0FB681B688E
:10254000DB6903F40063B3F5006F24D1FB681B68FB
:102550004FF400621A62FB681B681A68FB681B680C
:1025600022F4D0721A60FB681B689A68FB681B68CB
:1025700022F001029A60FB6820229A67FB68202201
:10258000DA67FB682022C3F88020FB68002283F80A
:10259000742003230FE0FB681B68DA69BB681340F3
:1025A000BA689A420CBF01230023DBB21A46FB79BA
:1025B0009A4291D0002318461037BD4680BD80B4A2
:1025C00083B000AF786039607B683A689A6200BF78
:1025D0000C37BD465DF8047B704780B483B000AF14
:1025E000786039607B683A68DA6200BF0C37BD46B4
:1025F0005DF8047B704780B483B000AF78603960C9
:102600007B683A681A6300BF0C37BD465DF8047BEF
:10261000704780B483B000AF78607B685B6943F03B
:1026200001027B685A6100BF0C37BD465DF8047B30
:102630007047000080B584B000AF786039607B6877
:102640001B68FB607B68394A93420FD07B68B3F10B
:10265000804F0BD07B68364A934207D07B68354A5F
:10266000934203D07B68344A934206D1FB6823F03F
:1026700070023B685B681343FB607B682B4A9342A4
:102680001BD07B68B3F1804F17D07B68284A9342F8
:1026900013D07B68274A93420FD07B68264A934227
:1026A0000BD07B68254A934207D07B68244A93422B
:1026B00003D07B68234A934206D1FB6823F440721F
:1026C0003B68DB681343FB607B68FA681A603B6811
:1026D0009B6819467868FFF780FF3B681B8819469E
:1026E0007868FFF76CFF7B68104A93420FD07B68D5
:1026F000114A93420BD07B68104A934207D07B6803
:102700000F4A934203D07B680E4A934205D13B683F
:102710001B6919467868FFF76EFF7868FFF779FF45
:10272000002318461037BD4680BD00BF002C014075
:102730000004004000080040003401400040014017
:10274000004401400048014080B485B000AF78608B
:102750000F4B1B68FB60FB687B68B3F1FF3F0CD03D
:102760007B6801337B6008E0094B1B6803F480330E
:10277000002B02D07B68013B7B607B68002BF3D190
:1027800000BF00BF1437BD465DF8047B704700BF33
:1027900010E000E080B483B000AF7860044A7B684A
:1027A000136000BF0C37BD465DF8047B704700BF67
:1027B000800000201FB514461A46094B1B680546C9
:1027C000D8684CB1074B0091CDE9013406492B463E
:1027D00000F014F800F02CFC044B1C46F3E700BF9B
:1027E0008C000020CC3D0008D93D0008073E0008C1
:1027F000014B1868704700BF8C0000200EB403B571
:10280000014603AB054853F8042B0068019300F020
:102810006BF802B05DF804EB03B070478C00002049
:1028200070B50D4D0D4C641BA4100026A64209D1B5
:102830000B4D0C4C01F07CF9641BA4100026A64241
:1028400005D170BD55F8043B98470136EEE755F8C1
:10285000043B98470136F2E7A03E0008A03E00087E
:10286000A03E0008A43E00080A44914200F1FF3354
:1028700000D1704710B511F8014B03F8014F914298
:10288000F9D110BD02440346934200D1704703F8CA
:10289000011BF9E79368013B002B10B4936008DA41
:1028A0009469A34201DB0A2903D15DF8044B00F0CF
:1028B000FFBA1368581C1060197008465DF8044B85
:1028C0007047F8B506460F461446D518AC4201D1FC
:1028D000002007E014F8011B3A463046FFF7DAFF04
:1028E000431CF3D1F8BD00002DE9F04F0D469DB01B
:1028F00014469846064618B183690BB900F0BAFC35
:10290000894B9D421BD175686B6ED90705D4AB8985
:102910009A0502D4A86D00F04BFDAB891B0701D5C9
:102920002B69EBB92946304600F014FBC0B16B6E41
:10293000DC070ED54FF0FF301DB0BDE8F08F7B4BAC
:102940009D4201D1B568DFE7794B9D4208BFF5682C
:10295000DAE7AB899805EDD4A86D00F02AFDE9E728
:102960000023099320238DF82930CDF80C803023E3
:10297000DFF8C0818DF82A304FF0010923469A46CE
:1029800013F8012B0AB1252AF9D1BAEB040B0BD0AD
:102990005B46224629463046FFF793FF013000F0A0
:1029A000AA80099A5A4409929AF80030002B00F044
:1029B000A28000234FF0FF32CDE905230AF1010A7E
:1029C000049307938DF853301A935446052214F854
:1029D000011B5848FDF704FC049AD8B9D10644BF3E
:1029E00020238DF85330130744BF2B238DF8533029
:1029F0009AF800302A2B15D0079A544600204FF041
:102A00000A0C214611F8013B303B092B4ED9B0B1DD
:102A1000079214E0A0EB080309FA03F313430493AD
:102A2000A246D2E7039B191D1B680391002BBBBF75
:102A30005B4242F0020207930793B8BF04922378E7
:102A40002E2B0CD163782A2B35D1039B1A1D1B68C2
:102A50000392002BB8BF4FF0FF3302340593DFF829
:102A6000E4A0217803225046FDF7BAFB40B1402391
:102A7000A0EB0A0003FA00F0049B03430134049323
:102A800014F8011B2C488DF828100622FDF7A8FB2E
:102A900000283FD0294B1BBB039B073323F00703C0
:102AA00008330393099B3B44099367E70CFB02320D
:102AB0000C460120A5E700230134059319464FF089
:102AC0000A0C204610F8012B303A092A03D9002BB2
:102AD000C5D00591C3E70CFB012104460123F0E7B3
:102AE00003AB00932A46164B04A93046AFF300808F
:102AF0000746781CD6D16B6ED90705D4AB899A05E9
:102B000002D4A86D00F055FCAB895B063FF512AF0F
:102B1000099811E703AB00932A46094B04A93046F4
:102B200000F080F8E4E700BF603E0008803E000847
:102B3000403E00080C3E0008163E00080000000061
:102B4000C3280008123E00082DE9F04716469946B2
:102B50008A680B69DDF820809342B8BF1346336062
:102B600091F8432007460C460AB1013333602368CD
:102B7000990642BF336802333360256815F00605B5
:102B800006D104F1190AE36832689B1AAB4226DCCD
:102B900094F84320131E226818BF012392062BD4F9
:102BA00004F1430249463846C04701301ED023682D
:102BB000E568326803F00603042B08BFAD1AA3686A
:102BC00022690CBF25EAE57500259342C4BF9B1A14
:102BD000ED1800261A34B5421AD1002008E001236E
:102BE000524649463846C047013003D14FF0FF30C6
:102BF000BDE8F0870135C6E7E1185A1C302081F89E
:102C00004300224494F8451082F843100233C7E78A
:102C10000123224649463846C0470130E6D00136F6
:102C2000D9E700002DE9FF470C469146277E0C9915
:102C3000782F80469A4604F1430207D8622F0AD8BB
:102C4000002F00F0D880582F00F0A38004F1420636
:102C500084F842703AE0A7F16303152BF6D801A07F
:102C600050F823F0BD2C0008D12C00084D2C000892
:102C70004D2C00084D2C00084D2C0008D12C0008CC
:102C80004D2C00084D2C00084D2C00084D2C000840
:102C9000DD2D0008012D0008BF2D00084D2C000877
:102CA0004D2C0008FF2D00084D2C0008012D0008B8
:102CB0004D2C00084D2C0008C72D00080B681A1D6C
:102CC0001B680A6004F1420684F842300123A3E045
:102CD000256808682E0600F104030AD505680B6014
:102CE000002D03DA2D236D4284F843305E480A2319
:102CF00019E015F0400F05680B6018BF2DB2EFE723
:102D00000B682568181D0860280601D51D6802E0BB
:102D10006906FBD51D8854486F2F0CBF08230A2372
:102D2000002184F843106668A660002EA2BF2168C7
:102D300021F0040121600DB9002E4DD01646B5FBDF
:102D4000F3F103FB1157C75D06F8017D2F46BB4227
:102D50000D46F4D9082B0BD12368DF0708D523696A
:102D600061689942DEBF302306F8013C06F1FF3668
:102D7000921B2261CDF800A04B4603AA2146404693
:102D8000FFF7E2FE01304CD14FF0FF3004B0BDE858
:102D9000F087354884F8457023680E681F0656F89A
:102DA000045B0E6014D5D90744BF43F020032360B1
:102DB0001DB9236823F0200323601023B0E72368A4
:102DC00043F0200323607823284884F84530E3E764
:102DD0005E0648BFADB2E6E71646BBE70B6826685D
:102DE00060691D1D0D6035061B6801D5186002E085
:102DF0007106FBD51880002323611646BAE70B68DD
:102E00001A1D0A601E68626800213046FDF7E8F965
:102E100008B1801B606063682361002384F843303D
:102E2000A8E72369324649464046D0470130ABD037
:102E300023689B0713D4E068039B9842B8BF1846E9
:102E4000A4E70123324649464046D04701309BD093
:102E50000135E36803995B1AAB42F2DCEBE700252E
:102E600004F11906F5E700BF1D3E00082E3E0008DC
:102E700000B59BB0009104916FF000410591029163
:102E800005490391694600F03FFC009B00221A703F
:102E90001BB05DF804FB00BF0802FFFF13460A46A3
:102EA000014602480068FFF7E3BF00BF8C00002026
:102EB000F8B50E461446054618B183690BB900F003
:102EC000D9F9214B9C422BD16C68A369A360A389DB
:102ED0001A072FD523696BB323692068C01A636969
:102EE000F6B28342374604DC2146284600F02EF92C
:102EF00030BBA368013BA36023685A1C22601E708C
:102F000063690130834204D0A389DB0706D50A2E0A
:102F100004D12146284600F019F988B93846F8BD91
:102F20000A4B9C4201D1AC68CFE7094B9C4208BFD9
:102F3000EC68CAE72146284600F00CF80028CBD000
:102F40004FF0FF37EAE700BF603E0008803E000810
:102F5000403E0008324B70B51D6806460C4625B150
:102F6000AB6913B9284600F085F92E4B9C420FD16E
:102F70006C68A389B4F90C2019072CD4DD0611D490
:102F80000923336042F04003A3814FF0FF303EE05D
:102F9000254B9C4201D1AC68EBE7244B9C4208BF17
:102FA000EC68E6E7580712D5616B41B104F14403C0
:102FB000994202D0304600F07BFA00236363A38974
:102FC00023F02403A3810023636023692360A38982
:102FD00043F00803A38123694BB9A38903F4207349
:102FE000B3F5007F03D02146304600F007FAA089F0
:102FF000B4F90C2010F001030AD00023A360636928
:103000005B42A361236943B910F08000BAD170BD5F
:10301000810758BF6369A360F4E70020F7E700BFAA
:103020008C000020603E0008803E0008403E000802
:1030300008B5062000F0A0FC0120FDF7BFFD000050
:103040008A892DE9F041054610070C4658D44B6893
:10305000002B05DC0B6C002B02DC0020BDE8F081AE
:10306000E66A002EF9D0002312F480522F682B60FC
:1030700032D0606DA3895A0705D56368C01A636BA7
:103080000BB1236CC01A00230246E66A216A284667
:10309000B047431CA38906D129681D292CD82A4A88
:1030A000CA40D60728D500226260D904226922606E
:1030B00004D5421C01D12B6803B96065616B2F6098
:1030C0000029CAD004F14403994202D0284600F0F6
:1030D000EFF900206063C1E7216A01232846B04769
:1030E000411CC7D12B68002BC4D01D2B01D0162B3F
:1030F00001D12F60B1E7A38943F04003A381ADE77D
:103100000F69002FA9D093070E6808BF4B690F60A5
:1031100018BF0023A6EB07088B60B8F1000F9CDDF9
:10312000216AA66A43463A462846B047002806DC8C
:10313000A38943F04003A3814FF0FF308EE707449B
:10314000A8EB0008E9E700BF0100402038B50B6993
:1031500005460C4613B90025284638BD18B18369C9
:103160000BB900F087F8144B9C421BD16C68B4F982
:103170000C30002BEFD0626ED00704D4990502D436
:10318000A06D00F015F928462146FFF759FF636E40
:10319000DA070546E0D4A3899B05DDD4A06D00F0D5
:1031A00008F9D9E7054B9C4201D1AC68DFE7044B35
:1031B0009C4208BFEC68DAE7603E0008803E0008E9
:1031C000403E0008002310B50446C0E90033C0E9C2
:1031D0000433836081814366C2818361194608227A
:1031E0005C30FFF74FFB054B6362054BA362054B59
:1031F000E362054B2462236310BD00BFB1390008B0
:10320000D33900080B3A00082F3A0008014900F0B2
:10321000AFB800BF4D31000870B54A1E6825554350
:103220000E4605F1740100F093F9044640B1002107
:10323000C0E900160C30A06005F16802FFF722FB20
:10324000204670BD014800F0B3B800BFC0030020A5
:10325000014800F0AEB800BFC0030020014800F0F4
:10326000A7B800BFBB030020014800F0A2B800BF10
:10327000BB03002010B50446FFF7F0FFA3691BB1A4
:10328000BDE81040FFF7F0BFC4E912332365134BCC
:10329000134A1B68A262A34204BF0123A361204614
:1032A00000F020F86060204600F01CF8A060204686
:1032B00000F018F80022E06004216068FFF782FF48
:1032C000A06801220921FFF77DFFE0680222122198
:1032D000FFF778FF0123A361D2E700BF083E000893
:1032E0000D320008F8B50746FFF7ACFF1E4B1E680D
:1032F000B36913B93046FFF7BDFF4836D6E901344C
:10330000013B03D533680BB33668F7E7B4F90C50CB
:10331000D5B9164BE36004F15800656600F047F834
:10332000FFF796FFC4E90155C4E904552560A5617E
:103330000822294604F15C00FFF7A4FAC4E90D5500
:10334000C4E912552046F8BD6834D9E7042138464F
:10335000FFF762FF044630600028D5D1FFF778FF01
:103360000C233B60EEE700BF083E00080100FFFFB2
:103370002DE9F8430646884600F148040027D4E9C1
:103380000195B9F1010905D52468002CF7D138461B
:10339000BDE8F883AB89012B07D9B5F90E300133AD
:1033A00003D029463046C04707436835E9E77047F0
:1033B0007047704770B50E46B1F90E10002996B0EF
:1033C00014461D4607DA00232B60B3891A0610D471
:1033D0004FF480630EE06A4600F050FB0028F2DBF9
:1033E000019A02F47042A2F500535A425A412A60EF
:1033F000EEE740230020236016B070BD8B8973B5C3
:103400009D0706460C4607D504F147032360236158
:103410000123636102B070BD01AB6A46FFF7CAFFCA
:1034200000990546304600F093F848B9B4F90C30DD
:103430009A05EFD423F0030343F00203A381E3E7EB
:103440000D4BB362A389206043F08003A381009BEE
:103450006361019B20615BB1B4F90E10304600F04E
:103460001FFB28B1A38923F0030343F00103A381C9
:10347000A0890543A581CDE70D320008884210B52B
:1034800001EB020402D98442234607D8431EA1421D
:1034900008D011F8012B03F8012FF8E70244014688
:1034A0008A4200D110BD13F8014D02F8014DF7E733
:1034B00037B5002948D051F8043C0190002BA1F108
:1034C0000404B8BFE41800F00DFB204A019813680B
:1034D000154633B96360146003B0BDE8304000F0B6
:1034E00007BBA3420BD921686218934204BF1A6834
:1034F0005B68636004BF521822602C60ECE71A46D8
:103500005B680BB1A342FAD911685518A5420BD1DB
:10351000246821445418A3421160DDD11C685B6803
:10352000536021441160D7E702D90C230360D3E72D
:10353000256861198B4204BF19685B68636004BF2A
:10354000491921605460C7E703B030BD180300205B
:10355000F8B5CD1C25F0030508350C2D38BF0C251A
:10356000002D064601DBA94203D90C23336000205D
:10357000F8BD00F0B7FA21490A6814469CB9204FFB
:103580003B6823B92146304600F0BEF93860294631
:10359000304600F0B9F9431C23D10C233360304688
:1035A00000F0A6FAE3E723685B1B17D40B2B03D9C3
:1035B00023601C44256004E06368A2420CBF0B60DA
:1035C0005360304600F094FA04F10B00231D20F004
:1035D0000700C21ACCD01B1AA350C9E72246646860
:1035E000CCE7C41C24F00304A042E3D0211A3046E7
:1035F00000F08AF90130DDD1CFE700BF18030020C9
:103600001C030020F8B5074614460E4621B9BDE854
:10361000F8401146FFF79CBF22B9FFF749FF254646
:103620002846F8BD00F06AFAA0420FD2214638467B
:10363000FFF78EFF05460028F2D031462246FFF7FD
:1036400013F931463846FFF733FFE9E73546E7E738
:103650002DE9F0478E689E4282460C4690461F46F2
:1036600038D88A8912F4906F32D025680969A5EBA1
:103670000109656905EB450505EBD57501334B443B
:103680006D109D4238BF1D46530531D52946FFF7C1
:103690005FFF064650B90C23CAF80030A38943F0F7
:1036A0004003A3814FF0FF30BDE8F08721694A460F
:1036B000FFF7DAF8A38923F4906343F08003A38132
:1036C000266165614E44A5EB09052660A5603E466E
:1036D000BE4200D93E46324620684146FFF7CEFE44
:1036E000A36822689B1B3244A36022600020DBE7B2
:1036F0002A46FFF787FF06460028E1D12169504698
:10370000FFF7D6FEC7E700002DE9F04F98468B89FA
:103710001B069DB007460D4614460ED50B6963B9CE
:103720004021FFF715FF2860286120B90C233B607A
:103730004FF0FF30D1E040236B6100230993202339
:103740008DF82930CDF80C803023DFF8A8818DF872
:103750002A304FF0010923469A4613F8012B0AB18B
:10376000252AF9D1BAEB040B0BD05B462246294639
:103770003846FFF76DFF013000F0AA80099A5A44DD
:1037800009929AF80030002B00F0A28000234FF03D
:10379000FF32CDE905230AF1010A049307938DF85E
:1037A00053301A935446052214F8011B5148FCF774
:1037B00017FD049AD8B9D00644BF20238DF85330A2
:1037C000110744BF2B238DF853309AF800302A2B71
:1037D00015D0079A544600204FF00A0C214611F8E4
:1037E000013B303B092B4ED9B0B1079214E0A0EB5E
:1037F000080309FA03F313430493A246D2E7039B99
:10380000191D1B680391002BBBBF5B4242F00202F3
:1038100007930793B8BF049223782E2B0CD16378BB
:103820002A2B35D1039B1A1D1B680392002BB8BFAE
:103830004FF0FF3302340593DFF8C8A0217803224C
:103840005046FCF7CDFC40B14023A0EB0A0003FA40
:1038500000F0049B03430134049314F8011B264831
:103860008DF828100622FCF7BBFC002838D0234B2B
:103870001BBB039B073323F0070308330393099B08
:103880003344099367E70CFB02320C460120A5E79D
:1038900000230134059319464FF00A0C204610F816
:1038A000012B303A092A03D9002BC5D00591C3E773
:1038B0000CFB012104460123F0E703AB00932A46E9
:1038C0000F4B04A93846AFF30080421C0646D6D100
:1038D000AB895B063FF52CAF09981DB0BDE8F08FB2
:1038E00003AB00932A46064B04A93846FFF79AF922
:1038F000EBE700BF0C3E0008163E00080000000089
:1039000051360008123E000838B5064D0023044623
:1039100008462B60FDF7CAF9431C02D12B6803B19E
:10392000236038BDC40300201F2938B504460D4666
:1039300004D9162303604FF0FF3038BD426C12B13A
:1039400052F821304BB9204600F030F82A460146A3
:103950002046BDE8384000F017B8012B0AD0591CAA
:1039600003D1162303600120E7E7002442F8254035
:10397000284698470020E0E7024B01461868FFF709
:10398000D3BF00BF8C00002038B5074D002304468C
:10399000084611462B60FDF701F9431C02D12B6844
:1039A00003B1236038BD00BFC4030020FDF7EEB8AB
:1039B00010B50C46B1F90E1000F0A8F80028ABBF06
:1039C000636DA3891B1823F48053ACBF6365A38187
:1039D00010BD2DE9F0411F468B89DB0505460C46DD
:1039E000164605D5B1F90E100223002200F068F842
:1039F000A389B4F90E1023F48053A38132463B46C9
:103A00002846BDE8F04100F017B810B50C46B1F9F2
:103A10000E1000F055F8431CA38915BF606523F410
:103A2000805343F48053A38118BFA38110BDB1F923
:103A30000E1000F013B8000038B5074D04460846D4
:103A4000114600222A601A46FDF7DFF8431C02D116
:103A50002B6803B1236038BDC403002038B5064D80
:103A60000023044608462B60FDF7EBF8431C02D107
:103A70002B6803B1236038BDC403002038B5074D5F
:103A800000230446084611462B60FDF7E6F8431C68
:103A900002D12B6803B1236038BD00BFC4030020EE
:103AA00038B5064D0023044608462B60FDF7E5F8BF
:103AB000431C02D12B6803B1236038BDC40300202E
:103AC00038B5074D04460846114600222A601A46BA
:103AD000FDF7DEF8431C02D12B6803B1236038BD2B
:103AE000C40300200148FFF763BC00BFBC030020F3
:103AF0000148FFF75EBC00BFBC03002051F8043C46
:103B0000181F002BBCBF0B58C018704738B5074DA5
:103B100004460846114600222A601A46FDF758F866
:103B2000431C02D12B6803B1236038BDC4030020BD
:103B3000F8B500BFF8BC08BC9E467047F8B500BF9A
:083B4000F8BC08BC9E4670476A
:103B48004F3000000A0A0A0A5374617274696E677A
:103B58002E2E2E0A4F7074696D697A6174696F6EC2
:103B68003A2025730A416C676F726974686D3A2050
:103B780025730A006D73675F6C656E3A253034648F
:103B880020000000686173683A2530386C7520752C
:103B9800733A2530386C75200A0000006F6666732A
:103BA8006574203C204E4C414E45532A73697A6512
:103BB8006F662874586F6F646F6F4C616E6529006B
:103BC8002E2E2F436F72652F616C676F732F786F7E
:103BD8006F6479616B2F496D706C656D656E74618A
:103BE80074696F6E732F63727970746F5F68617335
:103BF800682F786F6F6479616B76312F7265662FE5
:103C0800586F6F646F6F2D7265666572656E636558
:103C18002E6300006F66667365742B6C656E67743F
:103C280068203C3D204E4C414E45532A73697A65C5
:103C38006F662874586F6F646F6F4C616E652900EA
:103C480062797465436F756E74203C3D204E4C411B
:103C58004E45532A73697A656F662874586F6F6486
:103C68006F6F4C616E652900696E7374616E636570
:103C78002D3E6D6F6465203D3D204379636C69730B
:103C8800745F4D6F64654861736800002E2E2F4382
:103C98006F72652F616C676F732F786F6F647961CE
:103CA8006B2F496D706C656D656E746174696F6EAC
:103CB800732F63727970746F5F686173682F786FA0
:103CC8006F6479616B76312F7265662F4379636C07
:103CD8006973742E696E6300284B4C656E202B2027
:103CE80049444C656E29203C3D20284379636C6922
:103CF80073745F526B696E202D203129000000001B
:103D0800696E7374616E63652D3E6D6F6465203DE9
:103D18003D204379636C6973745F4D6F64654B65CF
:103D280079656400000000000102030458000000E7
:103D380038000000C0030000D0000000200100008F
:103D480014000000600000002C0000008003000048
:103D5800F0000000A001000012000000586F6F641E
:103D68006F6F5F416464427974650000586F6F64D7
:103D78006F6F5F416464427974657300586F6F6454
:103D88006F6F5F457874726163744279746573000C
:103D9800586F6F6479616B5F4162736F72624B65D4
:103DA8007900000002030405060708090A0B0C0D38
:103DB8000E0F10100102030405060708090A0B0C70
:103DC8000D0E0F102C2066756E6374696F6E3A20A5
:103DD80000617373657274696F6E202225732220E7
:103DE8006661696C65643A2066696C652022257392
:103DF800222C206C696E65202564257325730A00C2
:103E080090000020232D302B2000686C4C00656644
:103E18006745464700303132333435363738394113
:103E28004243444546003031323334353637383929
:103E38006162636465660000000000000000000025
:103E4800000000000000000000000000000000006A
:103E5800000000000000000000000000000000005A
:103E6800000000000000000000000000000000004A
:103E7800000000000000000000000000000000003A
:103E8800000000000000000000000000000000002A
:083E9800000000000000000022
:043EA000B501000860
:043EA4009101000880
:103EA8004C57435F414C474F5F484153485F584F19
:103EB8004F4459414B5631000000000000000000FB
:103EC80000000000000000000000000000000000EA
:103ED80000000000000000000000000000000000DA
:103EE80000000000000000000000000000000000CA
:103EF80000000000000000000000000000000000BA
:103F080000000000000000000000000000000000A9
:103F18000000000000000000000000000000000099
:103F280000127A001000000001000000900000203C
:103F380000000000603E0008803E0008403E000887
:103F48000000000000000000000000000000000069
:103F58000000000000000000000000000000000059
:103F68000000000000000000000000000000000049
:103F78000000000000000000000000000000000039
:103F88000000000000000000000000000000000029
:0400000508000D3DA5
:00000001FF
